:100000000C9462000C948A000C948A000C948A0070
:100010000C948A000C948A000C948A000C948A0038
:100020000C948A000C948A000C948A000C948A0028
:100030000C948A000C948A000C948A000C948A0018
:100040000C944B020C948A000C94BB020C94950205
:100050000C948A000C948A000C948A000C948A00F8
:100060000C948A000C948A000000000024002700F1
:100070002A000000000023002600290000000000E4
:10008000250028002B0004040404040404040202D4
:100090000202020203030303030301020408102007
:1000A0004080010204081020010204081020000012
:1000B0000008000201000003040700000000000027
:1000C00000000C0411241FBECFEFD8E0DEBFCDBF6F
:1000D00011E0A0E0B1E0E2E8F8E002C005900D9286
:1000E000A632B107D9F721E0A6E2B1E001C01D9226
:1000F000AC3CB207E1F710E0C2E6D0E004C02197C3
:10010000FE010E943904C136D107C9F70E94ED02F1
:100110000C943F040C940000833081F028F481306B
:1001200099F08230A9F008958730A9F08830C9F09D
:100130008430B1F4809180008F7D03C08091800075
:100140008F7780938000089584B58F7784BD08955C
:1001500084B58F7DFBCF8091B0008F778093B00006
:1001600008958091B0008F7DF9CF1F93CF93DF93D7
:10017000282F30E0F901E255FF4F8491F901E6564E
:10018000FF4FD491F901EA57FF4FC491CC23A9F056
:10019000162F81110E948C00EC2FF0E0EE0FFF1F54
:1001A000E458FF4FA591B4918FB7F894EC911111D9
:1001B00008C0D095DE23DC938FBFDF91CF911F91D4
:1001C0000895DE2BF8CF3FB7F8948091C801909145
:1001D000C901A091CA01B091CB0126B5A89B05C069
:1001E0002F3F19F00196A11DB11D3FBFBA2FA92FB6
:1001F000982F8827BC01CD01620F711D811D911DB3
:1002000042E0660F771F881F991F4A95D1F708951E
:100210008F929F92AF92BF92CF92DF92EF92FF9216
:100220000E94E3004B015C018CE2C82EDD24D394D4
:10023000E12CF12C0E94E300681979098A099B09D5
:10024000683E734081059105A8F321E0C21AD108E8
:10025000E108F10888EE880E83E0981EA11CB11C0D
:10026000C114D104E104F10429F7FF90EF90DF906D
:10027000CF90BF90AF909F908F900895AF92BF9214
:10028000CF92DF92EF92FF920F931F93CF93DF9362
:100290006C017B018B01040F151FEB015E01AE1891
:1002A000BF08C017D10759F06991D601ED91FC91B3
:1002B0000190F081E02DC6010995892B79F7C501E0
:1002C000DF91CF911F910F91FF90EF90DF90CF9032
:1002D000BF90AF900895FC01538D448D252F30E0E1
:1002E000842F90E0821B930B541710F0CF96089543
:1002F00001970895FC01918D828D981761F0A28D70
:10030000AE0FBF2FB11D5D968C91928D9F5F9F7335
:10031000928F90E008958FEF9FEF0895FC01918DEB
:10032000828D981731F0828DE80FF11D858D90E058
:1003300008958FEF9FEF0895FC01918D228D892FF5
:1003400090E0805C9F4F821B91098F7399270895DD
:1003500086E291E00E949C0121E0892B09F420E0D3
:10036000822F089580E090E0892B29F00E94A80157
:1003700081110C9400000895FC01A48DA80FB92FE1
:10038000B11DA35ABF4F2C91848D90E001968F73BD
:100390009927848FA689B7892C93A089B1898C91DC
:1003A000837080648C93938D848D981306C002882B
:1003B000F389E02D80818F7D80830895EF92FF92F5
:1003C0000F931F93CF93DF93EC0181E0888F9B8D78
:1003D0008C8D98131AC0E889F989808185FF15C032
:1003E0009FB7F894EE89FF896083E889F989808155
:1003F0008370806480839FBF81E090E0DF91CF9124
:100400001F910F91FF90EF900895F62E0B8D10E045
:100410000F5F1F4F0F731127E02E8C8D8E110CC0B4
:100420000FB607FCFACFE889F989808185FFF5CFFF
:10043000CE010E94BC01F1CFEB8DEC0FFD2FF11D21
:10044000E35AFF4FF0829FB7F8940B8FEA89FB893C
:1004500080818062CFCFCF93DF93EC01888D88239A
:10046000B9F0AA89BB89E889F9898C9185FD03C017
:10047000808186FD0DC00FB607FCF7CF8C9185FFFC
:10048000F2CF808185FFEDCFCE010E94BC01E9CF84
:10049000DF91CF9108951F920F920FB60F92112402
:1004A0002F933F938F939F93AF93BF938091C401FA
:1004B0009091C501A091C601B091C7013091C301CF
:1004C00023E0230F2D3758F50196A11DB11D209370
:1004D000C3018093C4019093C501A093C601B0935A
:1004E000C7018091C8019091C901A091CA01B09142
:1004F000CB010196A11DB11D8093C8019093C90144
:10050000A093CA01B093CB01BF91AF919F918F91FE
:100510003F912F910F900FBE0F901F90189526E8D6
:10052000230F0296A11DB11DD2CF1F920F920FB6BD
:100530000F9211242F933F934F935F936F937F9369
:100540008F939F93AF93BF93EF93FF9386E291E0D6
:100550000E94BC01FF91EF91BF91AF919F918F914C
:100560007F916F915F914F913F912F910F900FBEAF
:100570000F901F9018951F920F920FB60F92112493
:100580002F938F939F93EF93FF93E0913601F09118
:1005900037018081E0913C01F0913D0182FD1BC05B
:1005A000908180913F018F5F8F732091400182176E
:1005B00041F0E0913F01F0E0EA5DFE4F958F8093BE
:1005C0003F01FF91EF919F918F912F910F900FBE5F
:1005D0000F901F9018958081F4CF789484B5826035
:1005E00084BD84B5816084BD85B5826085BD85B5D7
:1005F000816085BD80916E00816080936E00109255
:1006000081008091810082608093810080918100CF
:100610008160809381008091800081608093800060
:100620008091B10084608093B1008091B0008160BE
:100630008093B00080917A00846080937A008091EA
:100640007A00826080937A0080917A008160809342
:100650007A0080917A00806880937A001092C100BD
:10066000E0913601F091370182E08083E091320120
:10067000F09133011082E0913401F09135018FEC5B
:10068000808310923E01E0913A01F0913B0186E0B7
:100690008083E0913801F09139018081806180830D
:1006A000E0913801F0913901808188608083E09188
:1006B0003801F0913901808180688083E0913801B0
:1006C000F091390180818F7D8083CCE9D0E0FE01FB
:1006D000249108E810E0F80184918823C9F090E0A3
:1006E000880F991FFC01E859FF4FA591B491FC01B7
:1006F000E458FF4F459154919FB7F8943C91822F55
:10070000809583238C93FA018081282B20839FBFBF
:10071000EFE9F0E02491EBE8F0E08491882399F090
:1007200090E0880F991FFC01E859FF4FA591B49103
:10073000FC01E458FF4F859194918FB7F894EC91A8
:10074000E22BEC938FBF61E085E00E94B50060E092
:1007500085E00E94B5000E94080190EBE92E90E030
:10076000F92E20E0C22E20E0D22EF7018491FE0166
:10077000A490F801B490BB2009F442C081110E94FA
:100780008C00EB2DF0E0EE0FFF1FEE58FF4FA59110
:10079000B4918C91A822A1F14FE050E062E171E0A8
:1007A00086E291E00E943E0142E050E062E271E0A8
:1007B00086E291E00E943E0161E085E00E94B50082
:1007C0000E94080160E085E00E94B5000E940801D7
:1007D00061E085E00E94B5000E94080160E085E0CC
:1007E0000E94B5000E94080161E085E00E94B5000A
:1007F0000E94080160E085E00E94B5000E940801A7
:10080000C114D10409F4B1CF0E94A801882309F4CE
:10081000ACCF0E940000A9CFE6E2F1E01382128281
:1008200088EE93E0A0E0B0E084839583A683B7834D
:1008300084E091E09183808385EC90E095878487C4
:1008400084EC90E09787868780EC90E0918B808B9A
:1008500081EC90E0938B828B82EC90E0958B848B83
:1008600086EC90E0978B868B118E128E138E148EF1
:100870000895EE0FFF1F0590F491E02D0994F89470
:02088000FFCFA8
:1008820000000000DE013E016B012B029C017A0197
:100892008E01564942524154494F4E20414C4552D5
:0608A20054000D0A0000E5
:00000001FF
